{
  "_format": "hh-sol-artifact-1",
  "contractName": "Duck",
  "sourceName": "contracts/Duck.sol",
  "abi": [
    {
      "inputs": [],
      "stateMutability": "nonpayable",
      "type": "constructor"
    },
    {
      "anonymous": false,
      "inputs": [
        {
          "indexed": true,
          "internalType": "address",
          "name": "sender",
          "type": "address"
        },
        {
          "indexed": true,
          "internalType": "address",
          "name": "receiver",
          "type": "address"
        },
        {
          "indexed": false,
          "internalType": "uint256",
          "name": "pickupTime",
          "type": "uint256"
        },
        {
          "indexed": false,
          "internalType": "uint256",
          "name": "distance",
          "type": "uint256"
        },
        {
          "indexed": false,
          "internalType": "uint256",
          "name": "price",
          "type": "uint256"
        }
      ],
      "name": "ShipmentCreated",
      "type": "event"
    },
    {
      "anonymous": false,
      "inputs": [
        {
          "indexed": true,
          "internalType": "address",
          "name": "sender",
          "type": "address"
        },
        {
          "indexed": true,
          "internalType": "address",
          "name": "receiver",
          "type": "address"
        },
        {
          "indexed": false,
          "internalType": "uint256",
          "name": "deliveryTime",
          "type": "uint256"
        }
      ],
      "name": "ShipmentDelivered",
      "type": "event"
    },
    {
      "anonymous": false,
      "inputs": [
        {
          "indexed": true,
          "internalType": "address",
          "name": "sender",
          "type": "address"
        },
        {
          "indexed": true,
          "internalType": "address",
          "name": "receiver",
          "type": "address"
        },
        {
          "indexed": false,
          "internalType": "uint256",
          "name": "pickupTime",
          "type": "uint256"
        }
      ],
      "name": "ShipmentInTransit",
      "type": "event"
    },
    {
      "anonymous": false,
      "inputs": [
        {
          "indexed": true,
          "internalType": "address",
          "name": "sender",
          "type": "address"
        },
        {
          "indexed": true,
          "internalType": "address",
          "name": "receiver",
          "type": "address"
        },
        {
          "indexed": false,
          "internalType": "uint256",
          "name": "amount",
          "type": "uint256"
        }
      ],
      "name": "ShipmentIsPaid",
      "type": "event"
    },
    {
      "inputs": [
        {
          "internalType": "address",
          "name": "_sender",
          "type": "address"
        },
        {
          "internalType": "address",
          "name": "_receiver",
          "type": "address"
        },
        {
          "internalType": "uint256",
          "name": "_index",
          "type": "uint256"
        }
      ],
      "name": "completeShipment",
      "outputs": [],
      "stateMutability": "nonpayable",
      "type": "function"
    },
    {
      "inputs": [
        {
          "internalType": "address",
          "name": "_receiver",
          "type": "address"
        },
        {
          "internalType": "uint256",
          "name": "_pickupTime",
          "type": "uint256"
        },
        {
          "internalType": "uint256",
          "name": "_distance",
          "type": "uint256"
        },
        {
          "internalType": "uint256",
          "name": "_price",
          "type": "uint256"
        }
      ],
      "name": "createShipment",
      "outputs": [],
      "stateMutability": "payable",
      "type": "function"
    },
    {
      "inputs": [],
      "name": "getAllTransactions",
      "outputs": [
        {
          "components": [
            {
              "internalType": "address",
              "name": "sender",
              "type": "address"
            },
            {
              "internalType": "address",
              "name": "receiver",
              "type": "address"
            },
            {
              "internalType": "uint256",
              "name": "pickupTime",
              "type": "uint256"
            },
            {
              "internalType": "uint256",
              "name": "deliveryTime",
              "type": "uint256"
            },
            {
              "internalType": "uint256",
              "name": "distance",
              "type": "uint256"
            },
            {
              "internalType": "uint256",
              "name": "price",
              "type": "uint256"
            },
            {
              "internalType": "enum Duck.ShipmentStatus",
              "name": "status",
              "type": "uint8"
            },
            {
              "internalType": "bool",
              "name": "isPaid",
              "type": "bool"
            }
          ],
          "internalType": "struct Duck.TypeShipment[]",
          "name": "",
          "type": "tuple[]"
        }
      ],
      "stateMutability": "view",
      "type": "function"
    },
    {
      "inputs": [
        {
          "internalType": "address",
          "name": "_sender",
          "type": "address"
        },
        {
          "internalType": "uint256",
          "name": "_index",
          "type": "uint256"
        }
      ],
      "name": "getShipment",
      "outputs": [
        {
          "internalType": "address",
          "name": "",
          "type": "address"
        },
        {
          "internalType": "address",
          "name": "",
          "type": "address"
        },
        {
          "internalType": "uint256",
          "name": "",
          "type": "uint256"
        },
        {
          "internalType": "uint256",
          "name": "",
          "type": "uint256"
        },
        {
          "internalType": "uint256",
          "name": "",
          "type": "uint256"
        },
        {
          "internalType": "enum Duck.ShipmentStatus",
          "name": "",
          "type": "uint8"
        },
        {
          "internalType": "bool",
          "name": "",
          "type": "bool"
        }
      ],
      "stateMutability": "view",
      "type": "function"
    },
    {
      "inputs": [
        {
          "internalType": "address",
          "name": "_sender",
          "type": "address"
        }
      ],
      "name": "getShipmentCount",
      "outputs": [
        {
          "internalType": "uint256",
          "name": "",
          "type": "uint256"
        }
      ],
      "stateMutability": "view",
      "type": "function"
    },
    {
      "inputs": [],
      "name": "shipmentCount",
      "outputs": [
        {
          "internalType": "uint256",
          "name": "",
          "type": "uint256"
        }
      ],
      "stateMutability": "view",
      "type": "function"
    },
    {
      "inputs": [
        {
          "internalType": "address",
          "name": "",
          "type": "address"
        },
        {
          "internalType": "uint256",
          "name": "",
          "type": "uint256"
        }
      ],
      "name": "shipments",
      "outputs": [
        {
          "internalType": "address",
          "name": "sender",
          "type": "address"
        },
        {
          "internalType": "address",
          "name": "receiver",
          "type": "address"
        },
        {
          "internalType": "uint256",
          "name": "pickedTime",
          "type": "uint256"
        },
        {
          "internalType": "uint256",
          "name": "deliveryTime",
          "type": "uint256"
        },
        {
          "internalType": "uint256",
          "name": "price",
          "type": "uint256"
        },
        {
          "internalType": "enum Duck.ShipmentStatus",
          "name": "status",
          "type": "uint8"
        },
        {
          "internalType": "bool",
          "name": "isPaid",
          "type": "bool"
        }
      ],
      "stateMutability": "view",
      "type": "function"
    },
    {
      "inputs": [
        {
          "internalType": "address",
          "name": "_sender",
          "type": "address"
        },
        {
          "internalType": "address",
          "name": "_receiver",
          "type": "address"
        },
        {
          "internalType": "uint256",
          "name": "_index",
          "type": "uint256"
        }
      ],
      "name": "startShipment",
      "outputs": [],
      "stateMutability": "nonpayable",
      "type": "function"
    },
    {
      "inputs": [
        {
          "internalType": "uint256",
          "name": "",
          "type": "uint256"
        }
      ],
      "name": "typeShipments",
      "outputs": [
        {
          "internalType": "address",
          "name": "sender",
          "type": "address"
        },
        {
          "internalType": "address",
          "name": "receiver",
          "type": "address"
        },
        {
          "internalType": "uint256",
          "name": "pickupTime",
          "type": "uint256"
        },
        {
          "internalType": "uint256",
          "name": "deliveryTime",
          "type": "uint256"
        },
        {
          "internalType": "uint256",
          "name": "distance",
          "type": "uint256"
        },
        {
          "internalType": "uint256",
          "name": "price",
          "type": "uint256"
        },
        {
          "internalType": "enum Duck.ShipmentStatus",
          "name": "status",
          "type": "uint8"
        },
        {
          "internalType": "bool",
          "name": "isPaid",
          "type": "bool"
        }
      ],
      "stateMutability": "view",
      "type": "function"
    }
  ],
  "bytecode": "0x608060405234801561001057600080fd5b506000600181905550611afe806100286000396000f3fe6080604052600436106100865760003560e01c80638365da54116100595780638365da541461014b578063aace20b71461018e578063b7dfd93d146101b9578063cbc4b181146101f6578063faaff70e1461021257610086565b8063179a878c1461008b57806327506f53146100b45780635667e02f146100df5780637ff5265d14610122575b600080fd5b34801561009757600080fd5b506100b260048036038101906100ad9190611270565b610256565b005b3480156100c057600080fd5b506100c9610606565b6040516100d691906114c5565b60405180910390f35b3480156100eb57600080fd5b50610106600480360381019061010191906114e7565b610790565b6040516101199796959493929190611563565b60405180910390f35b34801561012e57600080fd5b5061014960048036038101906101449190611270565b610849565b005b34801561015757600080fd5b50610172600480360381019061016d91906114e7565b610aa5565b6040516101859796959493929190611563565b60405180910390f35b34801561019a57600080fd5b506101a3610c7a565b6040516101b091906115d2565b60405180910390f35b3480156101c557600080fd5b506101e060048036038101906101db91906115ed565b610c80565b6040516101ed91906115d2565b60405180910390f35b610210600480360381019061020b919061161a565b610ccb565b005b34801561021e57600080fd5b5061023960048036038101906102349190611681565b611125565b60405161024d9897969594939291906116ae565b60405180910390f35b60008060008573ffffffffffffffffffffffffffffffffffffffff1673ffffffffffffffffffffffffffffffffffffffff16815260200190815260200160002082815481106102a8576102a761172c565b5b906000526020600020906006020190506000600283815481106102ce576102cd61172c565b5b906000526020600020906007020190508373ffffffffffffffffffffffffffffffffffffffff168260010160009054906101000a900473ffffffffffffffffffffffffffffffffffffffff1673ffffffffffffffffffffffffffffffffffffffff1614610370576040517f08c379a0000000000000000000000000000000000000000000000000000000008152600401610367906117b8565b60405180910390fd5b600160028111156103845761038361130d565b5b8260050160009054906101000a900460ff1660028111156103a8576103a761130d565b5b146103e8576040517f08c379a00000000000000000000000000000000000000000000000000000000081526004016103df90611824565b60405180910390fd5b8160050160019054906101000a900460ff161561043a576040517f08c379a000000000000000000000000000000000000000000000000000000000815260040161043190611890565b60405180910390fd5b60028260050160006101000a81548160ff021916908360028111156104625761046161130d565b5b021790555060028160060160006101000a81548160ff0219169083600281111561048f5761048e61130d565b5b02179055504282600301819055504281600301819055506000826004015490508573ffffffffffffffffffffffffffffffffffffffff166108fc829081150290604051600060405180830381858888f193505050501580156104f5573d6000803e3d6000fd5b5060018360050160016101000a81548160ff02191690831515021790555060018260060160016101000a81548160ff0219169083151502179055508473ffffffffffffffffffffffffffffffffffffffff168673ffffffffffffffffffffffffffffffffffffffff167f3746ccceb54f44c9b0ee0120e596168d07ec9f6ca303cfdd9810d3b2e2686a2e856003015460405161059191906115d2565b60405180910390a38473ffffffffffffffffffffffffffffffffffffffff168673ffffffffffffffffffffffffffffffffffffffff167f3e2ea23912337ce464433f16d341fdc29ff05caa4c8d85923de5539993f68fcc836040516105f691906115d2565b60405180910390a3505050505050565b60606002805480602002602001604051908101604052809291908181526020016000905b828210156107875783829060005260206000209060070201604051806101000160405290816000820160009054906101000a900473ffffffffffffffffffffffffffffffffffffffff1673ffffffffffffffffffffffffffffffffffffffff1673ffffffffffffffffffffffffffffffffffffffff1681526020016001820160009054906101000a900473ffffffffffffffffffffffffffffffffffffffff1673ffffffffffffffffffffffffffffffffffffffff1673ffffffffffffffffffffffffffffffffffffffff168152602001600282015481526020016003820154815260200160048201548152602001600582015481526020016006820160009054906101000a900460ff1660028111156107475761074661130d565b5b60028111156107595761075861130d565b5b81526020016006820160019054906101000a900460ff1615151515815250508152602001906001019061062a565b50505050905090565b600060205281600052604060002081815481106107ac57600080fd5b9060005260206000209060060201600091509150508060000160009054906101000a900473ffffffffffffffffffffffffffffffffffffffff16908060010160009054906101000a900473ffffffffffffffffffffffffffffffffffffffff16908060020154908060030154908060040154908060050160009054906101000a900460ff16908060050160019054906101000a900460ff16905087565b60008060008573ffffffffffffffffffffffffffffffffffffffff1673ffffffffffffffffffffffffffffffffffffffff168152602001908152602001600020828154811061089b5761089a61172c565b5b906000526020600020906006020190506000600283815481106108c1576108c061172c565b5b906000526020600020906007020190508373ffffffffffffffffffffffffffffffffffffffff168260010160009054906101000a900473ffffffffffffffffffffffffffffffffffffffff1673ffffffffffffffffffffffffffffffffffffffff1614610963576040517f08c379a000000000000000000000000000000000000000000000000000000000815260040161095a906118fc565b60405180910390fd5b600060028111156109775761097661130d565b5b8260050160009054906101000a900460ff16600281111561099b5761099a61130d565b5b146109db576040517f08c379a00000000000000000000000000000000000000000000000000000000081526004016109d290611968565b60405180910390fd5b60018260050160006101000a81548160ff02191690836002811115610a0357610a0261130d565b5b021790555060018160060160006101000a81548160ff02191690836002811115610a3057610a2f61130d565b5b02179055508373ffffffffffffffffffffffffffffffffffffffff168573ffffffffffffffffffffffffffffffffffffffff167faafab9f94340179ff9cefd29621e1772a4b8efab8023163838f1b0a8f6ce5df58460020154604051610a9691906115d2565b60405180910390a35050505050565b6000806000806000806000806000808b73ffffffffffffffffffffffffffffffffffffffff1673ffffffffffffffffffffffffffffffffffffffff1681526020019081526020016000208981548110610b0157610b0061172c565b5b90600052602060002090600602016040518060e00160405290816000820160009054906101000a900473ffffffffffffffffffffffffffffffffffffffff1673ffffffffffffffffffffffffffffffffffffffff1673ffffffffffffffffffffffffffffffffffffffff1681526020016001820160009054906101000a900473ffffffffffffffffffffffffffffffffffffffff1673ffffffffffffffffffffffffffffffffffffffff1673ffffffffffffffffffffffffffffffffffffffff1681526020016002820154815260200160038201548152602001600482015481526020016005820160009054906101000a900460ff166002811115610c0957610c0861130d565b5b6002811115610c1b57610c1a61130d565b5b81526020016005820160019054906101000a900460ff1615151515815250509050806000015181602001518260400151836060015184608001518560a001518660c0015197509750975097509750975097505092959891949750929550565b60015481565b60008060008373ffffffffffffffffffffffffffffffffffffffff1673ffffffffffffffffffffffffffffffffffffffff168152602001908152602001600020805490509050919050565b803414610d0d576040517f08c379a0000000000000000000000000000000000000000000000000000000008152600401610d04906119fa565b60405180910390fd5b60006040518060e001604052803373ffffffffffffffffffffffffffffffffffffffff1681526020018673ffffffffffffffffffffffffffffffffffffffff1681526020018581526020016000815260200183815260200160006002811115610d7957610d7861130d565b5b81526020016000151581525090506000803373ffffffffffffffffffffffffffffffffffffffff1673ffffffffffffffffffffffffffffffffffffffff16815260200190815260200160002081908060018154018082558091505060019003906000526020600020906006020160009091909190915060008201518160000160006101000a81548173ffffffffffffffffffffffffffffffffffffffff021916908373ffffffffffffffffffffffffffffffffffffffff16021790555060208201518160010160006101000a81548173ffffffffffffffffffffffffffffffffffffffff021916908373ffffffffffffffffffffffffffffffffffffffff16021790555060408201518160020155606082015181600301556080820151816004015560a08201518160050160006101000a81548160ff02191690836002811115610ec657610ec561130d565b5b021790555060c08201518160050160016101000a81548160ff021916908315150217905550505060016000815480929190610f0090611a49565b919050555060026040518061010001604052803373ffffffffffffffffffffffffffffffffffffffff1681526020018773ffffffffffffffffffffffffffffffffffffffff1681526020018681526020016000815260200185815260200184815260200160006002811115610f7857610f7761130d565b5b815260200160001515815250908060018154018082558091505060019003906000526020600020906007020160009091909190915060008201518160000160006101000a81548173ffffffffffffffffffffffffffffffffffffffff021916908373ffffffffffffffffffffffffffffffffffffffff16021790555060208201518160010160006101000a81548173ffffffffffffffffffffffffffffffffffffffff021916908373ffffffffffffffffffffffffffffffffffffffff16021790555060408201518160020155606082015181600301556080820151816004015560a0820151816005015560c08201518160060160006101000a81548160ff0219169083600281111561108e5761108d61130d565b5b021790555060e08201518160060160016101000a81548160ff02191690831515021790555050508473ffffffffffffffffffffffffffffffffffffffff163373ffffffffffffffffffffffffffffffffffffffff167f5001b34ecf2db5b7bbeddcbbe761ec9ecadcc7638018b98ce3e24995b0e946b686868660405161111693929190611a91565b60405180910390a35050505050565b6002818154811061113557600080fd5b90600052602060002090600702016000915090508060000160009054906101000a900473ffffffffffffffffffffffffffffffffffffffff16908060010160009054906101000a900473ffffffffffffffffffffffffffffffffffffffff16908060020154908060030154908060040154908060050154908060060160009054906101000a900460ff16908060060160019054906101000a900460ff16905088565b600080fd5b600073ffffffffffffffffffffffffffffffffffffffff82169050919050565b6000611207826111dc565b9050919050565b611217816111fc565b811461122257600080fd5b50565b6000813590506112348161120e565b92915050565b6000819050919050565b61124d8161123a565b811461125857600080fd5b50565b60008135905061126a81611244565b92915050565b600080600060608486031215611289576112886111d7565b5b600061129786828701611225565b93505060206112a886828701611225565b92505060406112b98682870161125b565b9150509250925092565b600081519050919050565b600082825260208201905092915050565b6000819050602082019050919050565b6112f8816111fc565b82525050565b6113078161123a565b82525050565b7f4e487b7100000000000000000000000000000000000000000000000000000000600052602160045260246000fd5b6003811061134d5761134c61130d565b5b50565b600081905061135e8261133c565b919050565b600061136e82611350565b9050919050565b61137e81611363565b82525050565b60008115159050919050565b61139981611384565b82525050565b610100820160008201516113b660008501826112ef565b5060208201516113c960208501826112ef565b5060408201516113dc60408501826112fe565b5060608201516113ef60608501826112fe565b50608082015161140260808501826112fe565b5060a082015161141560a08501826112fe565b5060c082015161142860c0850182611375565b5060e082015161143b60e0850182611390565b50505050565b600061144d838361139f565b6101008301905092915050565b6000602082019050919050565b6000611472826112c3565b61147c81856112ce565b9350611487836112df565b8060005b838110156114b857815161149f8882611441565b97506114aa8361145a565b92505060018101905061148b565b5085935050505092915050565b600060208201905081810360008301526114df8184611467565b905092915050565b600080604083850312156114fe576114fd6111d7565b5b600061150c85828601611225565b925050602061151d8582860161125b565b9150509250929050565b611530816111fc565b82525050565b61153f8161123a565b82525050565b61154e81611363565b82525050565b61155d81611384565b82525050565b600060e082019050611578600083018a611527565b6115856020830189611527565b6115926040830188611536565b61159f6060830187611536565b6115ac6080830186611536565b6115b960a0830185611545565b6115c660c0830184611554565b98975050505050505050565b60006020820190506115e76000830184611536565b92915050565b600060208284031215611603576116026111d7565b5b600061161184828501611225565b91505092915050565b60008060008060808587031215611634576116336111d7565b5b600061164287828801611225565b94505060206116538782880161125b565b93505060406116648782880161125b565b92505060606116758782880161125b565b91505092959194509250565b600060208284031215611697576116966111d7565b5b60006116a58482850161125b565b91505092915050565b6000610100820190506116c4600083018b611527565b6116d1602083018a611527565b6116de6040830189611536565b6116eb6060830188611536565b6116f86080830187611536565b61170560a0830186611536565b61171260c0830185611545565b61171f60e0830184611554565b9998505050505050505050565b7f4e487b7100000000000000000000000000000000000000000000000000000000600052603260045260246000fd5b600082825260208201905092915050565b7f494e56414c494420524543454956455200000000000000000000000000000000600082015250565b60006117a260108361175b565b91506117ad8261176c565b602082019050919050565b600060208201905081810360008301526117d181611795565b9050919050565b7f536869706d656e74206e6f7420696e207472616e7369742e0000000000000000600082015250565b600061180e60188361175b565b9150611819826117d8565b602082019050919050565b6000602082019050818103600083015261183d81611801565b9050919050565b7f536869706d656e7420616c726561647920706169642e00000000000000000000600082015250565b600061187a60168361175b565b915061188582611844565b602082019050919050565b600060208201905081810360008301526118a98161186d565b9050919050565b7f496e76616c696420726563656976657200000000000000000000000000000000600082015250565b60006118e660108361175b565b91506118f1826118b0565b602082019050919050565b60006020820190508181036000830152611915816118d9565b9050919050565b7f536869706d656e7420616c726561647920696e207472616e7369742e00000000600082015250565b6000611952601c8361175b565b915061195d8261191c565b602082019050919050565b6000602082019050818103600083015261198181611945565b9050919050565b7f5061796d656e7420616d6f756e74206d757374206d617463682074686520707260008201527f6963652e00000000000000000000000000000000000000000000000000000000602082015250565b60006119e460248361175b565b91506119ef82611988565b604082019050919050565b60006020820190508181036000830152611a13816119d7565b9050919050565b7f4e487b7100000000000000000000000000000000000000000000000000000000600052601160045260246000fd5b6000611a548261123a565b91507fffffffffffffffffffffffffffffffffffffffffffffffffffffffffffffffff8203611a8657611a85611a1a565b5b600182019050919050565b6000606082019050611aa66000830186611536565b611ab36020830185611536565b611ac06040830184611536565b94935050505056fea2646970667358221220b646105ab32416a9d7e04e78779dfa375a9a21033a2f64f2feae62325661f46f64736f6c63430008130033",
  "linkReferences": {},
  "deployedLinkReferences": {}
}